{
    "contractName": "AyiamcoERC721",
    "abi": [
        {
            "inputs": [
                {
                    "internalType": "string",
                    "name": "name_",
                    "type": "string"
                },
                {
                    "internalType": "string",
                    "name": "symbol_",
                    "type": "string"
                }
            ],
            "stateMutability": "nonpayable",
            "type": "constructor"
        },
        {
            "inputs": [
                {
                    "internalType": "address",
                    "name": "owner",
                    "type": "address"
                }
            ],
            "name": "balanceOf",
            "outputs": [
                {
                    "internalType": "uint256",
                    "name": "",
                    "type": "uint256"
                }
            ],
            "stateMutability": "view",
            "type": "function"
        },
        {
            "inputs": [],
            "name": "getCurrentTokenId",
            "outputs": [
                {
                    "internalType": "uint256",
                    "name": "",
                    "type": "uint256"
                }
            ],
            "stateMutability": "view",
            "type": "function"
        },
        {
            "inputs": [
                {
                    "internalType": "string",
                    "name": "imageUrl",
                    "type": "string"
                },
                {
                    "internalType": "string",
                    "name": "description",
                    "type": "string"
                }
            ],
            "name": "mintToken",
            "outputs": [],
            "stateMutability": "payable",
            "type": "function"
        },
        {
            "inputs": [
                {
                    "internalType": "uint256",
                    "name": "tokenId",
                    "type": "uint256"
                }
            ],
            "name": "ownerOf",
            "outputs": [
                {
                    "internalType": "address",
                    "name": "",
                    "type": "address"
                }
            ],
            "stateMutability": "view",
            "type": "function"
        }
    ],
    "bytecode": "60806040523480156200001157600080fd5b5060405162000b8f38038062000b8f8339810160408190526200003491620001d0565b8151620000499060009060208501906200007f565b5080516200005f9060019060208401906200007f565b5050600160065550600280546001600160a01b031916331790556200028a565b8280546200008d9062000237565b90600052602060002090601f016020900481019282620000b15760008555620000fc565b82601f10620000cc57805160ff1916838001178555620000fc565b82800160010185558215620000fc579182015b82811115620000fc578251825591602001919060010190620000df565b506200010a9291506200010e565b5090565b5b808211156200010a57600081556001016200010f565b600082601f83011262000136578081fd5b81516001600160401b038082111562000153576200015362000274565b6040516020601f8401601f19168201810183811183821017156200017b576200017b62000274565b604052838252858401810187101562000192578485fd5b8492505b83831015620001b5578583018101518284018201529182019162000196565b83831115620001c657848185840101525b5095945050505050565b60008060408385031215620001e3578182fd5b82516001600160401b0380821115620001fa578384fd5b620002088683870162000125565b935060208501519150808211156200021e578283fd5b506200022d8582860162000125565b9150509250929050565b6002810460018216806200024c57607f821691505b602082108114156200026e57634e487b7160e01b600052602260045260246000fd5b50919050565b634e487b7160e01b600052604160045260246000fd5b6108f5806200029a6000396000f3fe60806040526004361061003f5760003560e01c80631a04f2f31461004457806356189236146100595780636352211e1461008457806370a08231146100b1575b600080fd5b6100576100523660046105f0565b6100d1565b005b34801561006557600080fd5b5061006e610291565b60405161007b91906107a1565b60405180910390f35b34801561009057600080fd5b506100a461009f366004610651565b6102b2565b60405161007b91906106c9565b3480156100bd57600080fd5b5061006e6100cc3660046105c2565b6102ef565b815182906100fa5760405162461bcd60e51b81526004016100f19061071e565b60405180910390fd5b600654600090815260036020908152604080832080546001600160a01b03191633908117909155835260049091529020546101369060016107aa565b33600090815260046020526040808220929092558151606081019092528054829161020c916101649061083d565b80601f01602080910402602001604051908101604052809291908181526020018280546101909061083d565b80156101dd5780601f106101b2576101008083540402835291602001916101dd565b820191906000526020600020905b8154815290600101906020018083116101c057829003601f168201915b5050505050604051806040016040528060018152602001600160fd1b815250610207600654610333565b610479565b81526020808201869052604091820185905260065460009081526005825291909120825180519192610243928492909101906104a8565b50602082810151805161025c92600185019201906104a8565b50604082015180516102789160028401916020909101906104a8565b5050600654610289915060016107aa565b600655505050565b6002546000906001600160a01b031633146102ab57600080fd5b5060065490565b6000818152600360205260408120546001600160a01b0316806102e75760405162461bcd60e51b81526004016100f1906106dd565b90505b919050565b60006001600160a01b0382166103175760405162461bcd60e51b81526004016100f19061075f565b506001600160a01b031660009081526004602052604090205490565b60608161035857506040805180820190915260018152600360fc1b60208201526102ea565b8160005b8115610382578061036c81610878565b915061037b9050600a836107e7565b915061035c565b60008167ffffffffffffffff8111156103ab57634e487b7160e01b600052604160045260246000fd5b6040519080825280601f01601f1916602001820160405280156103d5576020820181803683370190505b509050815b8515610470576103eb600182610826565b905060006103fa600a886107e7565b61040590600a610807565b61040f9088610826565b61041a9060306107c2565b905060008160f81b90508084848151811061044557634e487b7160e01b600052603260045260246000fd5b60200101906001600160f81b031916908160001a905350610467600a896107e7565b975050506103da565b50949350505050565b6060838383604051602001610490939291906106a2565b60405160208183030381529060405290509392505050565b8280546104b49061083d565b90600052602060002090601f0160209004810192826104d6576000855561051c565b82601f106104ef57805160ff191683800117855561051c565b8280016001018555821561051c579182015b8281111561051c578251825591602001919060010190610501565b5061052892915061052c565b5090565b5b80821115610528576000815560010161052d565b600082601f830112610551578081fd5b813567ffffffffffffffff8082111561056c5761056c6108a9565b604051601f8301601f191681016020018281118282101715610590576105906108a9565b6040528281528483016020018610156105a7578384fd5b82602086016020830137918201602001929092529392505050565b6000602082840312156105d3578081fd5b81356001600160a01b03811681146105e9578182fd5b9392505050565b60008060408385031215610602578081fd5b823567ffffffffffffffff80821115610619578283fd5b61062586838701610541565b9350602085013591508082111561063a578283fd5b5061064785828601610541565b9150509250929050565b600060208284031215610662578081fd5b5035919050565b60008151815b81811015610689576020818501810151868301520161066f565b818111156106975782828601525b509290920192915050565b60006106c06106ba6106b48488610669565b86610669565b84610669565b95945050505050565b6001600160a01b0391909116815260200190565b60208082526021908201527f4f776e657220717565727920666f72206e6f6e6578697374656e7420746f6b656040820152603760f91b606082015260800190565b60208082526021908201527f496d6167652055726c2063616e6e6f7420626520656d70747920737472696e676040820152601760f91b606082015260800190565b60208082526022908201527f42616c616e636520717565727920666f7220746865207a65726f206164647265604082015261737360f01b606082015260800190565b90815260200190565b600082198211156107bd576107bd610893565b500190565b600060ff821660ff84168060ff038211156107df576107df610893565b019392505050565b60008261080257634e487b7160e01b81526012600452602481fd5b500490565b600081600019048311821515161561082157610821610893565b500290565b60008282101561083857610838610893565b500390565b60028104600182168061085157607f821691505b6020821081141561087257634e487b7160e01b600052602260045260246000fd5b50919050565b600060001982141561088c5761088c610893565b5060010190565b634e487b7160e01b600052601160045260246000fd5b634e487b7160e01b600052604160045260246000fdfea26469706673582212209404cd713232981475a1b00126aad1d3ecd136b853fd6f0a2fa02f7886011a0264736f6c63430008000033",
    "sourcePath": "c:/Users/admin/Desktop/projects/blockchain/zuri-submissions/task3/contracts/AyiamcoERC721.sol",
    "compiler": {
        "name": "solc",
        "version": "0.8.0+commit.c7dfd78e"
    },
    "functionHashes": {
        "balanceOf(address)": "70a08231",
        "getCurrentTokenId()": "56189236",
        "mintToken(string,string)": "1a04f2f3",
        "ownerOf(uint256)": "6352211e"
    },
    "gasEstimates": {
        "creation": {
            "codeDepositCost": "458600",
            "executionCost": "infinite",
            "totalCost": "infinite"
        },
        "external": {
            "balanceOf(address)": "1319",
            "getCurrentTokenId()": "1876",
            "mintToken(string,string)": "infinite",
            "ownerOf(uint256)": "1299"
        },
        "internal": {
            "append(string memory,string memory,string memory)": "infinite",
            "uint2str(uint256)": "infinite"
        }
    }
}