{
  "_format": "hh-sol-artifact-1",
  "contractName": "Wish",
  "sourceName": "contracts/Wish.sol",
  "abi": [
    {
      "inputs": [],
      "stateMutability": "payable",
      "type": "constructor"
    },
    {
      "anonymous": false,
      "inputs": [
        {
          "indexed": false,
          "internalType": "address",
          "name": "_address",
          "type": "address"
        },
        {
          "indexed": false,
          "internalType": "string",
          "name": "wish",
          "type": "string"
        },
        {
          "indexed": false,
          "internalType": "uint32",
          "name": "timeStamp",
          "type": "uint32"
        },
        {
          "indexed": false,
          "internalType": "uint16",
          "name": "_isPrivate",
          "type": "uint16"
        }
      ],
      "name": "NewWish",
      "type": "event"
    },
    {
      "inputs": [],
      "name": "getPrivateWishes",
      "outputs": [
        {
          "components": [
            {
              "internalType": "string",
              "name": "wish",
              "type": "string"
            },
            {
              "internalType": "uint32",
              "name": "timeStamp",
              "type": "uint32"
            },
            {
              "internalType": "uint16",
              "name": "isPrivate",
              "type": "uint16"
            },
            {
              "internalType": "address",
              "name": "from",
              "type": "address"
            }
          ],
          "internalType": "struct Wish.UserWish[]",
          "name": "",
          "type": "tuple[]"
        }
      ],
      "stateMutability": "view",
      "type": "function"
    },
    {
      "inputs": [],
      "name": "getPublicWishes",
      "outputs": [
        {
          "components": [
            {
              "internalType": "string",
              "name": "wish",
              "type": "string"
            },
            {
              "internalType": "uint32",
              "name": "timeStamp",
              "type": "uint32"
            },
            {
              "internalType": "uint16",
              "name": "isPrivate",
              "type": "uint16"
            },
            {
              "internalType": "address",
              "name": "from",
              "type": "address"
            }
          ],
          "internalType": "struct Wish.UserWish[]",
          "name": "",
          "type": "tuple[]"
        }
      ],
      "stateMutability": "view",
      "type": "function"
    },
    {
      "inputs": [
        {
          "internalType": "string",
          "name": "_wish",
          "type": "string"
        },
        {
          "internalType": "bool",
          "name": "_isPrivate",
          "type": "bool"
        }
      ],
      "name": "makeWish",
      "outputs": [],
      "stateMutability": "nonpayable",
      "type": "function"
    }
  ],
  "bytecode": "0x60806040526064426100119190610026565b600381905550610086565b6000819050919050565b60006100318261001c565b915061003c8361001c565b92508261004c5761004b610057565b5b828206905092915050565b7f4e487b7100000000000000000000000000000000000000000000000000000000600052601260045260246000fd5b61149a806100956000396000f3fe608060405234801561001057600080fd5b50600436106100415760003560e01c80634c7750b2146100465780638a51293a14610062578063cd2d5ec614610080575b600080fd5b610060600480360381019061005b9190610d12565b61009e565b005b61006a6105db565b6040516100779190610f9c565b60405180910390f35b610088610824565b6040516100959190610f9c565b60405180910390f35b61011d6040518060400160405280601881526020017f2573206c617374207570646174652074696d653a20256420000000000000000081525033600260003373ffffffffffffffffffffffffffffffffffffffff1673ffffffffffffffffffffffffffffffffffffffff168152602001908152602001600020546109f5565b603c600260003373ffffffffffffffffffffffffffffffffffffffff1673ffffffffffffffffffffffffffffffffffffffff168152602001908152602001600020544261016a9190611180565b11806101b557506000600260003373ffffffffffffffffffffffffffffffffffffffff1673ffffffffffffffffffffffffffffffffffffffff16815260200190815260200160002054145b6101f4576040517f08c379a00000000000000000000000000000000000000000000000000000000081526004016101eb9061104e565b60405180910390fd5b801561039c576000803373ffffffffffffffffffffffffffffffffffffffff1673ffffffffffffffffffffffffffffffffffffffff16815260200190815260200160002060405180608001604052808481526020014263ffffffff168152602001600161ffff1681526020013373ffffffffffffffffffffffffffffffffffffffff16815250908060018154018082558091505060019003906000526020600020906002020160009091909190915060008201518160000190805190602001906102bf929190610bf2565b5060208201518160010160006101000a81548163ffffffff021916908363ffffffff16021790555060408201518160010160046101000a81548161ffff021916908361ffff16021790555060608201518160010160066101000a81548173ffffffffffffffffffffffffffffffffffffffff021916908373ffffffffffffffffffffffffffffffffffffffff160217905550505042600260003373ffffffffffffffffffffffffffffffffffffffff1673ffffffffffffffffffffffffffffffffffffffff1681526020019081526020016000208190555061056c565b6103dd6040518060400160405280601881526020017f63757272656e742072616e646f6d536565643a2025642e200000000000000000815250600354610a94565b603c600354111561056b5761040960405180606001604052806022815260200161144360229139610b30565b600160405180608001604052808481526020014263ffffffff168152602001600061ffff1681526020013373ffffffffffffffffffffffffffffffffffffffff1681525090806001815401808255809150506001900390600052602060002090600202016000909190919091506000820151816000019080519060200190610492929190610bf2565b5060208201518160010160006101000a81548163ffffffff021916908363ffffffff16021790555060408201518160010160046101000a81548161ffff021916908361ffff16021790555060608201518160010160066101000a81548173ffffffffffffffffffffffffffffffffffffffff021916908373ffffffffffffffffffffffffffffffffffffffff160217905550505042600260003373ffffffffffffffffffffffffffffffffffffffff1673ffffffffffffffffffffffffffffffffffffffff168152602001908152602001600020819055505b5b60644260035461057c919061112a565b61058691906112de565b6003819055507f2f915901622859b0cb95d1ce90e02ffde2a3e48236de0406821c9ddc36a74094338342846105bc5760006105bf565b60015b6040516105cf9493929190610f50565b60405180910390a15050565b606061065d6040518060400160405280601e81526020017f43757272656e742070726976617465207769736820636f756e743a20256400008152506000803373ffffffffffffffffffffffffffffffffffffffff1673ffffffffffffffffffffffffffffffffffffffff16815260200190815260200160002080549050610a94565b6000803373ffffffffffffffffffffffffffffffffffffffff1673ffffffffffffffffffffffffffffffffffffffff168152602001908152602001600020805480602002602001604051908101604052809291908181526020016000905b8282101561081b57838290600052602060002090600202016040518060800160405290816000820180546106ee9061127b565b80601f016020809104026020016040519081016040528092919081815260200182805461071a9061127b565b80156107675780601f1061073c57610100808354040283529160200191610767565b820191906000526020600020905b81548152906001019060200180831161074a57829003601f168201915b505050505081526020016001820160009054906101000a900463ffffffff1663ffffffff1663ffffffff1681526020016001820160049054906101000a900461ffff1661ffff1661ffff1681526020016001820160069054906101000a900473ffffffffffffffffffffffffffffffffffffffff1673ffffffffffffffffffffffffffffffffffffffff1673ffffffffffffffffffffffffffffffffffffffff1681525050815260200190600101906106bb565b50505050905090565b606061086a6040518060400160405280601d81526020017f43757272656e74207075626c6963207769736820636f756e743a202564000000815250600180549050610a94565b6001805480602002602001604051908101604052809291908181526020016000905b828210156109ec57838290600052602060002090600202016040518060800160405290816000820180546108bf9061127b565b80601f01602080910402602001604051908101604052809291908181526020018280546108eb9061127b565b80156109385780601f1061090d57610100808354040283529160200191610938565b820191906000526020600020905b81548152906001019060200180831161091b57829003601f168201915b505050505081526020016001820160009054906101000a900463ffffffff1663ffffffff1663ffffffff1681526020016001820160049054906101000a900461ffff1661ffff1661ffff1681526020016001820160069054906101000a900473ffffffffffffffffffffffffffffffffffffffff1673ffffffffffffffffffffffffffffffffffffffff1673ffffffffffffffffffffffffffffffffffffffff16815250508152602001906001019061088c565b50505050905090565b610a8f838383604051602401610a0d93929190610fe0565b6040516020818303038152906040527f07c81217000000000000000000000000000000000000000000000000000000007bffffffffffffffffffffffffffffffffffffffffffffffffffffffff19166020820180517bffffffffffffffffffffffffffffffffffffffffffffffffffffffff8381831617835250505050610bc9565b505050565b610b2c8282604051602401610aaa92919061101e565b6040516020818303038152906040527f9710a9d0000000000000000000000000000000000000000000000000000000007bffffffffffffffffffffffffffffffffffffffffffffffffffffffff19166020820180517bffffffffffffffffffffffffffffffffffffffffffffffffffffffff8381831617835250505050610bc9565b5050565b610bc681604051602401610b449190610fbe565b6040516020818303038152906040527f41304fac000000000000000000000000000000000000000000000000000000007bffffffffffffffffffffffffffffffffffffffffffffffffffffffff19166020820180517bffffffffffffffffffffffffffffffffffffffffffffffffffffffff8381831617835250505050610bc9565b50565b60008151905060006a636f6e736f6c652e6c6f679050602083016000808483855afa5050505050565b828054610bfe9061127b565b90600052602060002090601f016020900481019282610c205760008555610c67565b82601f10610c3957805160ff1916838001178555610c67565b82800160010185558215610c67579182015b82811115610c66578251825591602001919060010190610c4b565b5b509050610c749190610c78565b5090565b5b80821115610c91576000816000905550600101610c79565b5090565b6000610ca8610ca384611093565b61106e565b905082815260208101848484011115610cc057600080fd5b610ccb848285611239565b509392505050565b600081359050610ce28161142b565b92915050565b600082601f830112610cf957600080fd5b8135610d09848260208601610c95565b91505092915050565b60008060408385031215610d2557600080fd5b600083013567ffffffffffffffff811115610d3f57600080fd5b610d4b85828601610ce8565b9250506020610d5c85828601610cd3565b9150509250929050565b6000610d728383610ea2565b905092915050565b610d83816111b4565b82525050565b610d92816111b4565b82525050565b6000610da3826110d4565b610dad81856110f7565b935083602082028501610dbf856110c4565b8060005b85811015610dfb5784840389528151610ddc8582610d66565b9450610de7836110ea565b925060208a01995050600181019050610dc3565b50829750879550505050505092915050565b6000610e18826110df565b610e228185611108565b9350610e32818560208601611248565b610e3b816113cb565b840191505092915050565b6000610e51826110df565b610e5b8185611119565b9350610e6b818560208601611248565b610e74816113cb565b840191505092915050565b6000610e8c602583611119565b9150610e97826113dc565b604082019050919050565b60006080830160008301518482036000860152610ebf8282610e0d565b9150506020830151610ed46020860182610f23565b506040830151610ee76040860182610f05565b506060830151610efa6060860182610d7a565b508091505092915050565b610f0e816111d2565b82525050565b610f1d81611200565b82525050565b610f2c8161120a565b82525050565b610f3b8161120a565b82525050565b610f4a81611227565b82525050565b6000608082019050610f656000830187610d89565b8181036020830152610f778186610e46565b9050610f866040830185610f32565b610f936060830184610f41565b95945050505050565b60006020820190508181036000830152610fb68184610d98565b905092915050565b60006020820190508181036000830152610fd88184610e46565b905092915050565b60006060820190508181036000830152610ffa8186610e46565b90506110096020830185610d89565b6110166040830184610f14565b949350505050565b600060408201905081810360008301526110388185610e46565b90506110476020830184610f14565b9392505050565b6000602082019050818103600083015261106781610e7f565b9050919050565b6000611078611089565b905061108482826112ad565b919050565b6000604051905090565b600067ffffffffffffffff8211156110ae576110ad61139c565b5b6110b7826113cb565b9050602081019050919050565b6000819050602082019050919050565b600081519050919050565b600081519050919050565b6000602082019050919050565b600082825260208201905092915050565b600082825260208201905092915050565b600082825260208201905092915050565b600061113582611200565b915061114083611200565b9250827fffffffffffffffffffffffffffffffffffffffffffffffffffffffffffffffff038211156111755761117461130f565b5b828201905092915050565b600061118b82611200565b915061119683611200565b9250828210156111a9576111a861130f565b5b828203905092915050565b60006111bf826111e0565b9050919050565b60008115159050919050565b600061ffff82169050919050565b600073ffffffffffffffffffffffffffffffffffffffff82169050919050565b6000819050919050565b600063ffffffff82169050919050565b600060ff82169050919050565b60006112328261121a565b9050919050565b82818337600083830152505050565b60005b8381101561126657808201518184015260208101905061124b565b83811115611275576000848401525b50505050565b6000600282049050600182168061129357607f821691505b602082108114156112a7576112a661136d565b5b50919050565b6112b6826113cb565b810181811067ffffffffffffffff821117156112d5576112d461139c565b5b80604052505050565b60006112e982611200565b91506112f483611200565b9250826113045761130361133e565b5b828206905092915050565b7f4e487b7100000000000000000000000000000000000000000000000000000000600052601160045260246000fd5b7f4e487b7100000000000000000000000000000000000000000000000000000000600052601260045260246000fd5b7f4e487b7100000000000000000000000000000000000000000000000000000000600052602260045260246000fd5b7f4e487b7100000000000000000000000000000000000000000000000000000000600052604160045260246000fd5b6000601f19601f8301169050919050565b7f547269616c206c657373207468616e20776169742074696d65206f662031206d60008201527f696e757465000000000000000000000000000000000000000000000000000000602082015250565b611434816111c6565b811461143f57600080fd5b5056fe7570646174696e67207075626c6963576973686573207769746820736565642e2e2ea264697066735822122092c1e315190087ebc7715d6edcf79b642d5cfaf08eb73727c5c136a81f0303fb64736f6c63430008010033",
  "linkReferences": {},
  "deployedLinkReferences": {}
}