{
  "_format": "hh-sol-artifact-1",
  "contractName": "AyiamcoStakingToken",
  "sourceName": "contracts/AyiamcoStakingToken.sol",
  "abi": [
    {
      "inputs": [],
      "stateMutability": "nonpayable",
      "type": "constructor"
    },
    {
      "anonymous": false,
      "inputs": [
        {
          "indexed": true,
          "internalType": "address",
          "name": "owner",
          "type": "address"
        },
        {
          "indexed": true,
          "internalType": "address",
          "name": "spender",
          "type": "address"
        },
        {
          "indexed": false,
          "internalType": "uint256",
          "name": "value",
          "type": "uint256"
        }
      ],
      "name": "Approval",
      "type": "event"
    },
    {
      "anonymous": false,
      "inputs": [
        {
          "indexed": true,
          "internalType": "address",
          "name": "previousOwner",
          "type": "address"
        },
        {
          "indexed": true,
          "internalType": "address",
          "name": "newOwner",
          "type": "address"
        }
      ],
      "name": "OwnershipTransferred",
      "type": "event"
    },
    {
      "anonymous": false,
      "inputs": [
        {
          "indexed": true,
          "internalType": "address",
          "name": "from",
          "type": "address"
        },
        {
          "indexed": true,
          "internalType": "address",
          "name": "to",
          "type": "address"
        },
        {
          "indexed": false,
          "internalType": "uint256",
          "name": "value",
          "type": "uint256"
        }
      ],
      "name": "Transfer",
      "type": "event"
    },
    {
      "inputs": [
        {
          "internalType": "address",
          "name": "_stakeholder",
          "type": "address"
        }
      ],
      "name": "addStakeholder",
      "outputs": [],
      "stateMutability": "nonpayable",
      "type": "function"
    },
    {
      "inputs": [
        {
          "internalType": "address",
          "name": "owner",
          "type": "address"
        },
        {
          "internalType": "address",
          "name": "spender",
          "type": "address"
        }
      ],
      "name": "allowance",
      "outputs": [
        {
          "internalType": "uint256",
          "name": "",
          "type": "uint256"
        }
      ],
      "stateMutability": "view",
      "type": "function"
    },
    {
      "inputs": [
        {
          "internalType": "address",
          "name": "spender",
          "type": "address"
        },
        {
          "internalType": "uint256",
          "name": "amount",
          "type": "uint256"
        }
      ],
      "name": "approve",
      "outputs": [
        {
          "internalType": "bool",
          "name": "",
          "type": "bool"
        }
      ],
      "stateMutability": "nonpayable",
      "type": "function"
    },
    {
      "inputs": [
        {
          "internalType": "address",
          "name": "account",
          "type": "address"
        }
      ],
      "name": "balanceOf",
      "outputs": [
        {
          "internalType": "uint256",
          "name": "",
          "type": "uint256"
        }
      ],
      "stateMutability": "view",
      "type": "function"
    },
    {
      "inputs": [
        {
          "internalType": "address",
          "name": "receiver",
          "type": "address"
        }
      ],
      "name": "buyToken",
      "outputs": [],
      "stateMutability": "payable",
      "type": "function"
    },
    {
      "inputs": [
        {
          "internalType": "uint256",
          "name": "_stake",
          "type": "uint256"
        }
      ],
      "name": "createStake",
      "outputs": [],
      "stateMutability": "nonpayable",
      "type": "function"
    },
    {
      "inputs": [],
      "name": "decimals",
      "outputs": [
        {
          "internalType": "uint8",
          "name": "",
          "type": "uint8"
        }
      ],
      "stateMutability": "view",
      "type": "function"
    },
    {
      "inputs": [
        {
          "internalType": "address",
          "name": "spender",
          "type": "address"
        },
        {
          "internalType": "uint256",
          "name": "subtractedValue",
          "type": "uint256"
        }
      ],
      "name": "decreaseAllowance",
      "outputs": [
        {
          "internalType": "bool",
          "name": "",
          "type": "bool"
        }
      ],
      "stateMutability": "nonpayable",
      "type": "function"
    },
    {
      "inputs": [],
      "name": "getFixedTotalSupply",
      "outputs": [
        {
          "internalType": "uint256",
          "name": "",
          "type": "uint256"
        }
      ],
      "stateMutability": "view",
      "type": "function"
    },
    {
      "inputs": [],
      "name": "getTokenEthPrice",
      "outputs": [
        {
          "internalType": "uint256",
          "name": "",
          "type": "uint256"
        }
      ],
      "stateMutability": "view",
      "type": "function"
    },
    {
      "inputs": [
        {
          "internalType": "address",
          "name": "spender",
          "type": "address"
        },
        {
          "internalType": "uint256",
          "name": "addedValue",
          "type": "uint256"
        }
      ],
      "name": "increaseAllowance",
      "outputs": [
        {
          "internalType": "bool",
          "name": "",
          "type": "bool"
        }
      ],
      "stateMutability": "nonpayable",
      "type": "function"
    },
    {
      "inputs": [
        {
          "internalType": "address",
          "name": "_address",
          "type": "address"
        }
      ],
      "name": "isStakeholder",
      "outputs": [
        {
          "internalType": "bool",
          "name": "",
          "type": "bool"
        },
        {
          "internalType": "uint256",
          "name": "",
          "type": "uint256"
        }
      ],
      "stateMutability": "view",
      "type": "function"
    },
    {
      "inputs": [
        {
          "internalType": "uint256",
          "name": "price",
          "type": "uint256"
        }
      ],
      "name": "modifyTokenBuyPrice",
      "outputs": [],
      "stateMutability": "nonpayable",
      "type": "function"
    },
    {
      "inputs": [],
      "name": "name",
      "outputs": [
        {
          "internalType": "string",
          "name": "",
          "type": "string"
        }
      ],
      "stateMutability": "view",
      "type": "function"
    },
    {
      "inputs": [],
      "name": "owner",
      "outputs": [
        {
          "internalType": "address",
          "name": "",
          "type": "address"
        }
      ],
      "stateMutability": "view",
      "type": "function"
    },
    {
      "inputs": [],
      "name": "renounceOwnership",
      "outputs": [],
      "stateMutability": "nonpayable",
      "type": "function"
    },
    {
      "inputs": [
        {
          "internalType": "address",
          "name": "_stakeholder",
          "type": "address"
        }
      ],
      "name": "stakeOf",
      "outputs": [
        {
          "internalType": "uint256",
          "name": "",
          "type": "uint256"
        }
      ],
      "stateMutability": "view",
      "type": "function"
    },
    {
      "inputs": [],
      "name": "symbol",
      "outputs": [
        {
          "internalType": "string",
          "name": "",
          "type": "string"
        }
      ],
      "stateMutability": "view",
      "type": "function"
    },
    {
      "inputs": [],
      "name": "totalSupply",
      "outputs": [
        {
          "internalType": "uint256",
          "name": "",
          "type": "uint256"
        }
      ],
      "stateMutability": "view",
      "type": "function"
    },
    {
      "inputs": [
        {
          "internalType": "address",
          "name": "to",
          "type": "address"
        },
        {
          "internalType": "uint256",
          "name": "amount",
          "type": "uint256"
        }
      ],
      "name": "transfer",
      "outputs": [
        {
          "internalType": "bool",
          "name": "",
          "type": "bool"
        }
      ],
      "stateMutability": "nonpayable",
      "type": "function"
    },
    {
      "inputs": [
        {
          "internalType": "address",
          "name": "from",
          "type": "address"
        },
        {
          "internalType": "address",
          "name": "to",
          "type": "address"
        },
        {
          "internalType": "uint256",
          "name": "amount",
          "type": "uint256"
        }
      ],
      "name": "transferFrom",
      "outputs": [
        {
          "internalType": "bool",
          "name": "",
          "type": "bool"
        }
      ],
      "stateMutability": "nonpayable",
      "type": "function"
    },
    {
      "inputs": [
        {
          "internalType": "address",
          "name": "newOwner",
          "type": "address"
        }
      ],
      "name": "transferOwnership",
      "outputs": [],
      "stateMutability": "nonpayable",
      "type": "function"
    }
  ],
  "bytecode": "0x60806040523480156200001157600080fd5b506040518060400160405280601381526020017f417969616d636f5374616b696e67546f6b656e000000000000000000000000008152506040518060400160405280600481526020017f415953540000000000000000000000000000000000000000000000000000000081525081600390805190602001906200009692919062000355565b508060049080519060200190620000af92919062000355565b505050620000d2620000c66200010460201b60201c565b6200010c60201b60201c565b620f424060078190555066038d7ea4c68000600681905550620000fe336103e8620001d260201b60201c565b620005b1565b600033905090565b6000600560009054906101000a900473ffffffffffffffffffffffffffffffffffffffff16905081600560006101000a81548173ffffffffffffffffffffffffffffffffffffffff021916908373ffffffffffffffffffffffffffffffffffffffff1602179055508173ffffffffffffffffffffffffffffffffffffffff168173ffffffffffffffffffffffffffffffffffffffff167f8be0079c531659141344cd1fd0a4f28419497f9722a3daafe3b4186f6b6457e060405160405180910390a35050565b600073ffffffffffffffffffffffffffffffffffffffff168273ffffffffffffffffffffffffffffffffffffffff16141562000245576040517f08c379a00000000000000000000000000000000000000000000000000000000081526004016200023c906200043d565b60405180910390fd5b62000259600083836200034b60201b60201c565b80600260008282546200026d91906200048d565b92505081905550806000808473ffffffffffffffffffffffffffffffffffffffff1673ffffffffffffffffffffffffffffffffffffffff1681526020019081526020016000206000828254620002c491906200048d565b925050819055508173ffffffffffffffffffffffffffffffffffffffff16600073ffffffffffffffffffffffffffffffffffffffff167fddf252ad1be2c89b69c2b068fc378daa952ba7f163c4a11628f55a4df523b3ef836040516200032b91906200045f565b60405180910390a362000347600083836200035060201b60201c565b5050565b505050565b505050565b8280546200036390620004f4565b90600052602060002090601f016020900481019282620003875760008555620003d3565b82601f10620003a257805160ff1916838001178555620003d3565b82800160010185558215620003d3579182015b82811115620003d2578251825591602001919060010190620003b5565b5b509050620003e29190620003e6565b5090565b5b8082111562000401576000816000905550600101620003e7565b5090565b600062000414601f836200047c565b9150620004218262000588565b602082019050919050565b6200043781620004ea565b82525050565b60006020820190508181036000830152620004588162000405565b9050919050565b60006020820190506200047660008301846200042c565b92915050565b600082825260208201905092915050565b60006200049a82620004ea565b9150620004a783620004ea565b9250827fffffffffffffffffffffffffffffffffffffffffffffffffffffffffffffffff03821115620004df57620004de6200052a565b5b828201905092915050565b6000819050919050565b600060028204905060018216806200050d57607f821691505b6020821081141562000524576200052362000559565b5b50919050565b7f4e487b7100000000000000000000000000000000000000000000000000000000600052601160045260246000fd5b7f4e487b7100000000000000000000000000000000000000000000000000000000600052602260045260246000fd5b7f45524332303a206d696e7420746f20746865207a65726f206164647265737300600082015250565b6124a680620005c16000396000f3fe6080604052600436106101355760003560e01c8063834dc984116100ab578063ab74d7ff1161006f578063ab74d7ff14610441578063c408ad511461046c578063dd62ed3e14610497578063e5c42fd1146104d4578063ef037b90146104fd578063f2fde38b1461053b57610135565b8063834dc984146103485780638da5cb5b1461037157806395d89b411461039c578063a457c2d7146103c7578063a9059cbb1461040457610135565b8063313ce567116100fd578063313ce56714610233578063395093511461025e578063426233601461029b57806370a08231146102d8578063715018a6146103155780637e72fb521461032c57610135565b806306fdde031461013a578063095ea7b31461016557806318160ddd146101a25780631bf6ddae146101cd57806323b872dd146101f6575b600080fd5b34801561014657600080fd5b5061014f610564565b60405161015c9190611c56565b60405180910390f35b34801561017157600080fd5b5061018c60048036038101906101879190611956565b6105f6565b6040516101999190611c12565b60405180910390f35b3480156101ae57600080fd5b506101b7610619565b6040516101c49190611e18565b60405180910390f35b3480156101d957600080fd5b506101f460048036038101906101ef9190611992565b610623565b005b34801561020257600080fd5b5061021d60048036038101906102189190611907565b610717565b60405161022a9190611c12565b60405180910390f35b34801561023f57600080fd5b50610248610746565b6040516102559190611e33565b60405180910390f35b34801561026a57600080fd5b5061028560048036038101906102809190611956565b61074f565b6040516102929190611c12565b60405180910390f35b3480156102a757600080fd5b506102c260048036038101906102bd91906118a2565b6107f9565b6040516102cf9190611e18565b60405180910390f35b3480156102e457600080fd5b506102ff60048036038101906102fa91906118a2565b610842565b60405161030c9190611e18565b60405180910390f35b34801561032157600080fd5b5061032a61088a565b005b610346600480360381019061034191906118a2565b610912565b005b34801561035457600080fd5b5061036f600480360381019061036a9190611992565b610a27565b005b34801561037d57600080fd5b50610386610ac0565b6040516103939190611bf7565b60405180910390f35b3480156103a857600080fd5b506103b1610aea565b6040516103be9190611c56565b60405180910390f35b3480156103d357600080fd5b506103ee60048036038101906103e99190611956565b610b7c565b6040516103fb9190611c12565b60405180910390f35b34801561041057600080fd5b5061042b60048036038101906104269190611956565b610c66565b6040516104389190611c12565b60405180910390f35b34801561044d57600080fd5b50610456610c89565b6040516104639190611e18565b60405180910390f35b34801561047857600080fd5b50610481610c93565b60405161048e9190611e18565b60405180910390f35b3480156104a357600080fd5b506104be60048036038101906104b991906118cb565b610c9d565b6040516104cb9190611e18565b60405180910390f35b3480156104e057600080fd5b506104fb60048036038101906104f691906118a2565b610d24565b005b34801561050957600080fd5b50610524600480360381019061051f91906118a2565b610d9f565b604051610532929190611c2d565b60405180910390f35b34801561054757600080fd5b50610562600480360381019061055d91906118a2565b610e79565b005b60606003805461057390612007565b80601f016020809104026020016040519081016040528092919081815260200182805461059f90612007565b80156105ec5780601f106105c1576101008083540402835291602001916105ec565b820191906000526020600020905b8154815290600101906020018083116105cf57829003601f168201915b5050505050905090565b600080610601610f71565b905061060e818585610f79565b600191505092915050565b6000600254905090565b61062d3382611144565b6000600860003373ffffffffffffffffffffffffffffffffffffffff1673ffffffffffffffffffffffffffffffffffffffff16815260200190815260200160002054141561067f5761067e33610d24565b5b6106d181600860003373ffffffffffffffffffffffffffffffffffffffff1673ffffffffffffffffffffffffffffffffffffffff1681526020019081526020016000205461131b90919063ffffffff16565b600860003373ffffffffffffffffffffffffffffffffffffffff1673ffffffffffffffffffffffffffffffffffffffff1681526020019081526020016000208190555050565b600080610722610f71565b905061072f858285611331565b61073a8585856113bd565b60019150509392505050565b60006012905090565b60008061075a610f71565b90506107ee818585600160008673ffffffffffffffffffffffffffffffffffffffff1673ffffffffffffffffffffffffffffffffffffffff16815260200190815260200160002060008973ffffffffffffffffffffffffffffffffffffffff1673ffffffffffffffffffffffffffffffffffffffff168152602001908152602001600020546107e99190611e6a565b610f79565b600191505092915050565b6000600860008373ffffffffffffffffffffffffffffffffffffffff1673ffffffffffffffffffffffffffffffffffffffff168152602001908152602001600020549050919050565b60008060008373ffffffffffffffffffffffffffffffffffffffff1673ffffffffffffffffffffffffffffffffffffffff168152602001908152602001600020549050919050565b610892610f71565b73ffffffffffffffffffffffffffffffffffffffff166108b0610ac0565b73ffffffffffffffffffffffffffffffffffffffff1614610906576040517f08c379a00000000000000000000000000000000000000000000000000000000081526004016108fd90611d38565b60405180910390fd5b610910600061163e565b565b600061091c610619565b90508060075411610962576040517f08c379a000000000000000000000000000000000000000000000000000000000815260040161095990611d58565b60405180910390fd5b60003490506000826007546109779190611f4b565b90506000600654836109899190611ec0565b905081811115610a155761099d8583611704565b6000600654836109ad9190611ef1565b346109b89190611f4b565b905060006109c533611864565b90508073ffffffffffffffffffffffffffffffffffffffff166108fc839081150290604051600060405180830381858888f19350505050158015610a0d573d6000803e3d6000fd5b505050610a20565b610a1f8582611704565b5b5050505050565b610a2f610f71565b73ffffffffffffffffffffffffffffffffffffffff16610a4d610ac0565b73ffffffffffffffffffffffffffffffffffffffff1614610aa3576040517f08c379a0000000000000000000000000000000000000000000000000000000008152600401610a9a90611d38565b60405180910390fd5b80670de0b6b3a7640000610ab79190611ec0565b60068190555050565b6000600560009054906101000a900473ffffffffffffffffffffffffffffffffffffffff16905090565b606060048054610af990612007565b80601f0160208091040260200160405190810160405280929190818152602001828054610b2590612007565b8015610b725780601f10610b4757610100808354040283529160200191610b72565b820191906000526020600020905b815481529060010190602001808311610b5557829003601f168201915b5050505050905090565b600080610b87610f71565b90506000600160008373ffffffffffffffffffffffffffffffffffffffff1673ffffffffffffffffffffffffffffffffffffffff16815260200190815260200160002060008673ffffffffffffffffffffffffffffffffffffffff1673ffffffffffffffffffffffffffffffffffffffff16815260200190815260200160002054905083811015610c4d576040517f08c379a0000000000000000000000000000000000000000000000000000000008152600401610c4490611dd8565b60405180910390fd5b610c5a8286868403610f79565b60019250505092915050565b600080610c71610f71565b9050610c7e8185856113bd565b600191505092915050565b6000600654905090565b6000600754905090565b6000600160008473ffffffffffffffffffffffffffffffffffffffff1673ffffffffffffffffffffffffffffffffffffffff16815260200190815260200160002060008373ffffffffffffffffffffffffffffffffffffffff1673ffffffffffffffffffffffffffffffffffffffff16815260200190815260200160002054905092915050565b6000610d2f82610d9f565b50905080610d9b576009829080600181540180825580915050600190039060005260206000200160009091909190916101000a81548173ffffffffffffffffffffffffffffffffffffffff021916908373ffffffffffffffffffffffffffffffffffffffff1602179055505b5050565b60008060005b600980549050811015610e6b5760098181548110610dec577f4e487b7100000000000000000000000000000000000000000000000000000000600052603260045260246000fd5b9060005260206000200160009054906101000a900473ffffffffffffffffffffffffffffffffffffffff1673ffffffffffffffffffffffffffffffffffffffff168473ffffffffffffffffffffffffffffffffffffffff161415610e57576001819250925050610e74565b600181610e649190611e6a565b9050610da5565b50600080915091505b915091565b610e81610f71565b73ffffffffffffffffffffffffffffffffffffffff16610e9f610ac0565b73ffffffffffffffffffffffffffffffffffffffff1614610ef5576040517f08c379a0000000000000000000000000000000000000000000000000000000008152600401610eec90611d38565b60405180910390fd5b600073ffffffffffffffffffffffffffffffffffffffff168173ffffffffffffffffffffffffffffffffffffffff161415610f65576040517f08c379a0000000000000000000000000000000000000000000000000000000008152600401610f5c90611cb8565b60405180910390fd5b610f6e8161163e565b50565b600033905090565b600073ffffffffffffffffffffffffffffffffffffffff168373ffffffffffffffffffffffffffffffffffffffff161415610fe9576040517f08c379a0000000000000000000000000000000000000000000000000000000008152600401610fe090611db8565b60405180910390fd5b600073ffffffffffffffffffffffffffffffffffffffff168273ffffffffffffffffffffffffffffffffffffffff161415611059576040517f08c379a000000000000000000000000000000000000000000000000000000000815260040161105090611cd8565b60405180910390fd5b80600160008573ffffffffffffffffffffffffffffffffffffffff1673ffffffffffffffffffffffffffffffffffffffff16815260200190815260200160002060008473ffffffffffffffffffffffffffffffffffffffff1673ffffffffffffffffffffffffffffffffffffffff168152602001908152602001600020819055508173ffffffffffffffffffffffffffffffffffffffff168373ffffffffffffffffffffffffffffffffffffffff167f8c5be1e5ebec7d5bd14f71427d1e84f3dd0314c0f7b2291e5b200ac8c7c3b925836040516111379190611e18565b60405180910390a3505050565b600073ffffffffffffffffffffffffffffffffffffffff168273ffffffffffffffffffffffffffffffffffffffff1614156111b4576040517f08c379a00000000000000000000000000000000000000000000000000000000081526004016111ab90611d78565b60405180910390fd5b6111c08260008361186e565b60008060008473ffffffffffffffffffffffffffffffffffffffff1673ffffffffffffffffffffffffffffffffffffffff16815260200190815260200160002054905081811015611246576040517f08c379a000000000000000000000000000000000000000000000000000000000815260040161123d90611c98565b60405180910390fd5b8181036000808573ffffffffffffffffffffffffffffffffffffffff1673ffffffffffffffffffffffffffffffffffffffff16815260200190815260200160002081905550816002600082825461129d9190611f4b565b92505081905550600073ffffffffffffffffffffffffffffffffffffffff168373ffffffffffffffffffffffffffffffffffffffff167fddf252ad1be2c89b69c2b068fc378daa952ba7f163c4a11628f55a4df523b3ef846040516113029190611e18565b60405180910390a361131683600084611873565b505050565b600081836113299190611e6a565b905092915050565b600061133d8484610c9d565b90507fffffffffffffffffffffffffffffffffffffffffffffffffffffffffffffffff81146113b757818110156113a9576040517f08c379a00000000000000000000000000000000000000000000000000000000081526004016113a090611cf8565b60405180910390fd5b6113b68484848403610f79565b5b50505050565b600073ffffffffffffffffffffffffffffffffffffffff168373ffffffffffffffffffffffffffffffffffffffff16141561142d576040517f08c379a000000000000000000000000000000000000000000000000000000000815260040161142490611d98565b60405180910390fd5b600073ffffffffffffffffffffffffffffffffffffffff168273ffffffffffffffffffffffffffffffffffffffff16141561149d576040517f08c379a000000000000000000000000000000000000000000000000000000000815260040161149490611c78565b60405180910390fd5b6114a883838361186e565b60008060008573ffffffffffffffffffffffffffffffffffffffff1673ffffffffffffffffffffffffffffffffffffffff1681526020019081526020016000205490508181101561152e576040517f08c379a000000000000000000000000000000000000000000000000000000000815260040161152590611d18565b60405180910390fd5b8181036000808673ffffffffffffffffffffffffffffffffffffffff1673ffffffffffffffffffffffffffffffffffffffff16815260200190815260200160002081905550816000808573ffffffffffffffffffffffffffffffffffffffff1673ffffffffffffffffffffffffffffffffffffffff16815260200190815260200160002060008282546115c19190611e6a565b925050819055508273ffffffffffffffffffffffffffffffffffffffff168473ffffffffffffffffffffffffffffffffffffffff167fddf252ad1be2c89b69c2b068fc378daa952ba7f163c4a11628f55a4df523b3ef846040516116259190611e18565b60405180910390a3611638848484611873565b50505050565b6000600560009054906101000a900473ffffffffffffffffffffffffffffffffffffffff16905081600560006101000a81548173ffffffffffffffffffffffffffffffffffffffff021916908373ffffffffffffffffffffffffffffffffffffffff1602179055508173ffffffffffffffffffffffffffffffffffffffff168173ffffffffffffffffffffffffffffffffffffffff167f8be0079c531659141344cd1fd0a4f28419497f9722a3daafe3b4186f6b6457e060405160405180910390a35050565b600073ffffffffffffffffffffffffffffffffffffffff168273ffffffffffffffffffffffffffffffffffffffff161415611774576040517f08c379a000000000000000000000000000000000000000000000000000000000815260040161176b90611df8565b60405180910390fd5b6117806000838361186e565b80600260008282546117929190611e6a565b92505081905550806000808473ffffffffffffffffffffffffffffffffffffffff1673ffffffffffffffffffffffffffffffffffffffff16815260200190815260200160002060008282546117e79190611e6a565b925050819055508173ffffffffffffffffffffffffffffffffffffffff16600073ffffffffffffffffffffffffffffffffffffffff167fddf252ad1be2c89b69c2b068fc378daa952ba7f163c4a11628f55a4df523b3ef8360405161184c9190611e18565b60405180910390a361186060008383611873565b5050565b6000819050919050565b505050565b505050565b60008135905061188781612442565b92915050565b60008135905061189c81612459565b92915050565b6000602082840312156118b457600080fd5b60006118c284828501611878565b91505092915050565b600080604083850312156118de57600080fd5b60006118ec85828601611878565b92505060206118fd85828601611878565b9150509250929050565b60008060006060848603121561191c57600080fd5b600061192a86828701611878565b935050602061193b86828701611878565b925050604061194c8682870161188d565b9150509250925092565b6000806040838503121561196957600080fd5b600061197785828601611878565b92505060206119888582860161188d565b9150509250929050565b6000602082840312156119a457600080fd5b60006119b28482850161188d565b91505092915050565b6119c481611f7f565b82525050565b6119d381611f91565b82525050565b60006119e482611e4e565b6119ee8185611e59565b93506119fe818560208601611fd4565b611a07816120c6565b840191505092915050565b6000611a1f602383611e59565b9150611a2a826120d7565b604082019050919050565b6000611a42602283611e59565b9150611a4d82612126565b604082019050919050565b6000611a65602683611e59565b9150611a7082612175565b604082019050919050565b6000611a88602283611e59565b9150611a93826121c4565b604082019050919050565b6000611aab601d83611e59565b9150611ab682612213565b602082019050919050565b6000611ace602683611e59565b9150611ad98261223c565b604082019050919050565b6000611af1602083611e59565b9150611afc8261228b565b602082019050919050565b6000611b14601c83611e59565b9150611b1f826122b4565b602082019050919050565b6000611b37602183611e59565b9150611b42826122dd565b604082019050919050565b6000611b5a602583611e59565b9150611b658261232c565b604082019050919050565b6000611b7d602483611e59565b9150611b888261237b565b604082019050919050565b6000611ba0602583611e59565b9150611bab826123ca565b604082019050919050565b6000611bc3601f83611e59565b9150611bce82612419565b602082019050919050565b611be281611fbd565b82525050565b611bf181611fc7565b82525050565b6000602082019050611c0c60008301846119bb565b92915050565b6000602082019050611c2760008301846119ca565b92915050565b6000604082019050611c4260008301856119ca565b611c4f6020830184611bd9565b9392505050565b60006020820190508181036000830152611c7081846119d9565b905092915050565b60006020820190508181036000830152611c9181611a12565b9050919050565b60006020820190508181036000830152611cb181611a35565b9050919050565b60006020820190508181036000830152611cd181611a58565b9050919050565b60006020820190508181036000830152611cf181611a7b565b9050919050565b60006020820190508181036000830152611d1181611a9e565b9050919050565b60006020820190508181036000830152611d3181611ac1565b9050919050565b60006020820190508181036000830152611d5181611ae4565b9050919050565b60006020820190508181036000830152611d7181611b07565b9050919050565b60006020820190508181036000830152611d9181611b2a565b9050919050565b60006020820190508181036000830152611db181611b4d565b9050919050565b60006020820190508181036000830152611dd181611b70565b9050919050565b60006020820190508181036000830152611df181611b93565b9050919050565b60006020820190508181036000830152611e1181611bb6565b9050919050565b6000602082019050611e2d6000830184611bd9565b92915050565b6000602082019050611e486000830184611be8565b92915050565b600081519050919050565b600082825260208201905092915050565b6000611e7582611fbd565b9150611e8083611fbd565b9250827fffffffffffffffffffffffffffffffffffffffffffffffffffffffffffffffff03821115611eb557611eb4612039565b5b828201905092915050565b6000611ecb82611fbd565b9150611ed683611fbd565b925082611ee657611ee5612068565b5b828204905092915050565b6000611efc82611fbd565b9150611f0783611fbd565b9250817fffffffffffffffffffffffffffffffffffffffffffffffffffffffffffffffff0483118215151615611f4057611f3f612039565b5b828202905092915050565b6000611f5682611fbd565b9150611f6183611fbd565b925082821015611f7457611f73612039565b5b828203905092915050565b6000611f8a82611f9d565b9050919050565b60008115159050919050565b600073ffffffffffffffffffffffffffffffffffffffff82169050919050565b6000819050919050565b600060ff82169050919050565b60005b83811015611ff2578082015181840152602081019050611fd7565b83811115612001576000848401525b50505050565b6000600282049050600182168061201f57607f821691505b6020821081141561203357612032612097565b5b50919050565b7f4e487b7100000000000000000000000000000000000000000000000000000000600052601160045260246000fd5b7f4e487b7100000000000000000000000000000000000000000000000000000000600052601260045260246000fd5b7f4e487b7100000000000000000000000000000000000000000000000000000000600052602260045260246000fd5b6000601f19601f8301169050919050565b7f45524332303a207472616e7366657220746f20746865207a65726f206164647260008201527f6573730000000000000000000000000000000000000000000000000000000000602082015250565b7f45524332303a206275726e20616d6f756e7420657863656564732062616c616e60008201527f6365000000000000000000000000000000000000000000000000000000000000602082015250565b7f4f776e61626c653a206e6577206f776e657220697320746865207a65726f206160008201527f6464726573730000000000000000000000000000000000000000000000000000602082015250565b7f45524332303a20617070726f766520746f20746865207a65726f20616464726560008201527f7373000000000000000000000000000000000000000000000000000000000000602082015250565b7f45524332303a20696e73756666696369656e7420616c6c6f77616e6365000000600082015250565b7f45524332303a207472616e7366657220616d6f756e742065786365656473206260008201527f616c616e63650000000000000000000000000000000000000000000000000000602082015250565b7f4f776e61626c653a2063616c6c6572206973206e6f7420746865206f776e6572600082015250565b7f546f6b656e20666978656420737570706c792065786861757374656400000000600082015250565b7f45524332303a206275726e2066726f6d20746865207a65726f2061646472657360008201527f7300000000000000000000000000000000000000000000000000000000000000602082015250565b7f45524332303a207472616e736665722066726f6d20746865207a65726f20616460008201527f6472657373000000000000000000000000000000000000000000000000000000602082015250565b7f45524332303a20617070726f76652066726f6d20746865207a65726f2061646460008201527f7265737300000000000000000000000000000000000000000000000000000000602082015250565b7f45524332303a2064656372656173656420616c6c6f77616e63652062656c6f7760008201527f207a65726f000000000000000000000000000000000000000000000000000000602082015250565b7f45524332303a206d696e7420746f20746865207a65726f206164647265737300600082015250565b61244b81611f7f565b811461245657600080fd5b50565b61246281611fbd565b811461246d57600080fd5b5056fea2646970667358221220daedab4b7a42578f83f713254ab7578641d6ac3422d6738d44ef056447beff2164736f6c63430008010033",
  "linkReferences": {},
  "deployedLinkReferences": {}
}